:020000040800F2
:1000000000000520F90200080103000805030008AC
:100010001D03000821030008390300080000000048
:10002000000000000000000000000000197000083F
:1000300055030008000000007D700008D151000841
:100040006D0300086D0300086D0300086D030008D0
:100050006D0300086D0300086D0300086D030008C0
:100060006D0300086D0300086D0300086D030008B0
:100070006D0300086D0300086D0300086D030008A0
:100080006D0300086D0300086D0300086D03000890
:100090006D0300086D0300086D0300086D03000880
:1000A0006D0300086D0300086D0300086D03000870
:1000B0006D0300086D0300086D0300086D03000860
:1000C0006D0300086D0300086D0300086D03000850
:1000D0006D0300086D0300086D0300086D03000840
:1000E0006D0300086D0300086D0300086D03000830
:1000F0006D0300086D0300086D0300086D03000820
:100100006D0300086D0300086D0300086D0300080F
:100110006D0300086D0300086D0300086D030008FF
:100120006D0300086D0300086D0300086D030008EF
:100130006D0300086D0300086D0300086D030008DF
:100140006D0300086D0300086D0300086D030008CF
:100150006D0300086D0300086D030008456000088A
:100160006D0300086D0300086D0300086D030008AF
:100170006D0300086D0300086D0300080000000017
:100180006D0300086D0300086D0300086D0300088F
:100190006D0300086D0300086D0300086D0300087F
:1001A0006D0300086D0300086D0300086D0300086F
:1001B0006D0300086D0300086D0300086D0300085F
:1001C0006D0300086D03000800B583B004F0F4FD72
:1001D000384B394A1360394A136039490CE00A68D0
:1001E0004B6801F10C04886803E01168196004335E
:1001F00004329842F9D82146324B9942EFD32E4B24
:100200001A68314B9A4204D12C4B1A682F4B9A42F0
:1002100000D0FEE7274B2E4A13602E4A13602E4B68
:100220000AE0194651F8082B5B6802E000201060D4
:1002300004329A42FAD30B46284A9342F1D3244B14
:100240001B6813B9234B1B6803B1FEE704F0D6FE0D
:10025000694601A804F0A0FD214C224B1C1BA410F0
:10026000002504E01E4B53F8253098470135AC4279
:10027000F8DC1D4C1D4B1C1BA410002504E01A4B80
:1002800053F8253098470135AC42F8DC00990198C5
:1002900004F086FF0546164C164B1C1BA41004E008
:1002A000013C134B53F824309847002CF8DC2846C7
:1002B00004F04AFDBABADECA00000020180100208E
:1002C0007003000888030008785634123254769878
:1002D00020010020086C0020880300089803000813
:1002E0009803000898030008980300089803000882
:1002F000980300089803000808B5FFF765FF00BFE2
:1003000000BEFEE71EF0040F0CBFEFF30880EFF312
:1003100009807146124A104700BEFEE700BEFEE7A4
:100320001EF0040F0CBFEFF30880EFF30980714655
:100330000C4A104700BEFEE71EF0040F0CBFEFF39F
:100340000880EFF309807146074A104700BEFEE7B8
:1003500000BEFEE700BEFEE700BEFEE770470000FD
:1003600019030008350300084D03000800BEFEE72E
:10037000702B0108000000201C010020702B0108D8
:100380000000001000000010200100200C6C002074
:08039000000000100000001045
:1003A00010B5044602F032FC064BA3FB0030800976
:1003B00000F0B0F8002221464FF0FF3000F054F872
:1003C000002010BDD34D621008B5094B1A6842F4E5
:1003D00000721A601A6842F480721A60032000F0FA
:1003E00025F80F20FFF7DCFF04F0F0FE002008BD29
:1003F000003C0240024A136801331360704700BF9B
:1004000024010020014B1868704700BF2401002020
:1004100010B582B00190FFF7F5FF0446FFF7F2FF39
:10042000001B019B9842F9D302B010BD10B50446E1
:10043000C31E042B03D9A421084804F0B9FC084AC0
:10044000D36823F4E0631B041B0C240204F4E0646F
:100450001C43044B2343D36010BD00BFF8F20008D7
:1004600000ED00E00000FA0570B504460E461546A2
:100470000F2A03D9BC21184804F09AFC0F2E03D987
:10048000BD21154804F094FC144BDA68C2F3022233
:10049000C2F10701042928BF0421131D062B01D92D
:1004A000033A00E00022012303FA01F1013931404F
:1004B000914003FA02F2013A2A400A43002C06DA7C
:1004C00004F00F041201D2B2054B1A5570BD12018F
:1004D000D2B2044B1A5570BDF8F2000800ED00E0EE
:1004E00014ED00E000E400E010B5041E03DAD021B2
:1004F000064804F05DFC620904F01F04012303FABE
:1005000004F4034B43F8224010BD00BFF8F200088A
:1005100000E100E00138B0F1807F0AD2064B58605C
:10052000F021064A82F823100020986007221A6002
:1005300070470120704700BF10E000E000ED00E0D0
:1005400010B50446042818BF002804D040F2B311A7
:10055000084804F02DFC042C05D1074A136843F029
:100560000403136010BD044A136823F004031360EE
:1005700010BD00BFF8F2000810E000E0002800F015
:100580000C8110B504460368854A86498B4218BF22
:1005900093422ED0183293422BD01832934228D057
:1005A0001832934225D01832934222D01832934207
:1005B0001FD0183293421CD002F55672934218D0C5
:1005C0001832934215D01832934212D01832934207
:1005D0000FD0183293420CD01832934209D01832FF
:1005E000934206D01832934203D0E4216E4804F0BF
:1005F000DFFB6368002B18BFB3F1007F15D0B3F1A8
:10060000806F12D0B3F1C06F0FD0B3F1006F0CD078
:10061000B3F1206F09D0B3F1406F06D0B3F1606F32
:1006200003D0E521604804F0C3FBA368002B18BF8A
:10063000402B05D0802B03D0E6215B4804F0B8FBAB
:10064000E368B3F5007F18BF002B03D0E7215648BD
:1006500004F0AEFB2369B3F5806F18BF002B03D005
:10066000E821514804F0A4FB6369002B18BFB3F5DF
:10067000006F06D0B3F5805F03D0E9214A4804F04B
:1006800097FBA369002B18BFB3F5005F06D0B3F545
:10069000804F03D0EA21444804F08AFBE369002B31
:1006A00018BFB3F5807F05D0202B03D0EB213E4847
:1006B00004F07EFB236A002B18BFB3F5803F09D0FE
:1006C000B3F5003F06D0B3F5403F03D0EC213648E8
:1006D00004F06EFB636A002B18BF042B03D0ED21DE
:1006E000314804F065FB636A33B3A36A032B03D973
:1006F000F2212D4804F05CFBE36A002B18BFB3F530
:10070000000F09D0B3F1807F06D0B3F1C07F03D0D2
:10071000F321254804F04CFB236B002B18BFB3F5E5
:10072000001F09D0B3F5800F06D0B3F5C00F03D07A
:10073000F4211D4804F03CFB022384F83530206886
:1007400003681A4919406268A3681A43E3681A43A8
:1007500023691A4363691A43A3691A43E36913437C
:10076000226A1A4341EA0203626A042A03D1E16A57
:10077000226B0A43134303602268536923F0070383
:10078000616A0B43042901D1A16A0B435361002024
:10079000E064012384F8353010BD0120704700BFAC
:1007A00028600240106002402CF300083F8010F0E7
:1007B0000346002800F0078790F83520D2B2022ABD
:1007C00000F0038701680A6822F001020A600168EC
:1007D00000220A6001684A6001688A600168CA6094
:1007E00001680A610268212151610268AA498A42AE
:1007F00054D9A1F589618A422ED001F580618A42DF
:100800002CD0A1F568718A422AD001F580618A4214
:1008100028D0A1F589618A4226D001F580618A42FB
:1008200025D0A1F568718A4224D001F580618A4201
:1008300023D0A1F589618A4222D001F580618A42E4
:1008400021D0A1F568718A4220D001F580618A42E9
:100850001FD14FF480211EE090491CE08F491AE01F
:100860008E4918E08D4916E04FF4807113E04FF483
:10087000807110E04FF480710DE04FF480710AE058
:100880004FF4802107E04FF4802104E04FF48021F1
:1008900001E04FF08071824AD1600FE181498A42C4
:1008A00053D9A8398A422ED001F580618A422CD0D2
:1008B000A1F568718A422AD001F580618A4228D068
:1008C000A1F589618A4226D001F580618A4225D04E
:1008D000A1F568718A4224D001F580618A4223D053
:1008E000A1F589618A4222D001F580618A4221D036
:1008F000A1F568718A4220D001F580618A421FD13A
:100900004FF480211EE065491CE064491AE0634908
:1009100018E0624916E04FF4807113E04FF48071E3
:1009200010E04FF480710DE04FF480710AE04FF455
:10093000802107E04FF4802104E04FF4802101E0A2
:100940004FF08071564A9160B8E057498A4253D9B6
:1009500048398A422ED001F580618A422CD0A1F517
:1009600068718A422AD001F580618A4228D0A1F5B7
:1009700089618A4226D001F580618A4225D0A1F59D
:1009800068718A4224D001F580618A4223D0A1F5A2
:1009900089618A4222D001F580618A4221D0A1F585
:1009A00068718A4220D001F580618A421FD14FF4DC
:1009B00080211EE039491CE038491AE0374918E027
:1009C000364916E04FF4807113E04FF4807110E067
:1009D0004FF480710DE04FF480710AE04FF48021F4
:1009E00007E04FF4802104E04FF4802101E04FF054
:1009F00080712E4AD16061E02D498A422ED001F5E6
:100A000080618A422CD0A1F568718A422AD001F512
:100A100080618A4228D0A1F589618A4226D001F5F9
:100A200080618A4225D0A1F568718A4224D001F5FF
:100A300080618A4223D0A1F589618A4222D001F5E2
:100A400080618A4221D0A1F568718A4220D001F5E7
:100A500080618A422ED14FF480212DE00F492BE096
:100A60000E4929E00D4927E00C4925E04FF480713B
:100A700022E04FF480711FE04FF480711CE04FF4CE
:100A8000807119E04FF4802116E04FF4802113E0CB
:100A90004FF4802110E000BF586402400400800041
:100AA00000640240B86002405860024000600240AA
:100AB000106002404FF08071AB4A91601A68AB49F8
:100AC0008A4254D9A1F589618A422ED001F580610C
:100AD0008A422CD0A1F568718A422AD001F5806142
:100AE0008A4228D0A1F589618A4226D001F5806129
:100AF0008A4225D0A1F568718A4224D001F580612F
:100B00008A4223D0A1F589618A4222D001F5806111
:100B10008A4221D0A1F568718A4220D001F5806116
:100B20008A421FD14FF400111EE020211CE0202139
:100B30001AE0202118E0202116E04FF4006113E0B4
:100B40004FF4006110E04FF400610DE04FF40061DC
:100B50000AE04FF4001107E04FF4001104E04FF4F5
:100B6000001101E04FF00061814AD1600CE1814940
:100B70008A4253D9A8398A422ED001F580618A422F
:100B80002CD0A1F568718A422AD001F580618A4291
:100B900028D0A1F589618A4226D001F580618A4278
:100BA00025D0A1F568718A4224D001F580618A427E
:100BB00023D0A1F589618A4222D001F580618A4261
:100BC00021D0A1F568718A4220D001F580618A4266
:100BD0001FD14FF400111EE020211CE020211AE05B
:100BE000202118E0202116E04FF4006113E04FF4BB
:100BF000006110E04FF400610DE04FF400610AE085
:100C00004FF4001107E04FF4001104E04FF400111D
:100C100001E04FF00061564A9160B5E056498A42C2
:100C200053D948398A422ED001F580618A422CD0AE
:100C3000A1F568718A422AD001F580618A4228D0E4
:100C4000A1F589618A4226D001F580618A4225D0CA
:100C5000A1F568718A4224D001F580618A4223D0CF
:100C6000A1F589618A4222D001F580618A4221D0B2
:100C7000A1F568718A4220D001F580618A421FD1B6
:100C80004FF400111EE020211CE020211AE0202159
:100C900018E0202116E04FF4006113E04FF40061EA
:100CA00010E04FF400610DE04FF400610AE04FF4F2
:100CB000001107E04FF4001104E04FF4001101E0CF
:100CC0004FF00061284AD1605EE02C498A422ED064
:100CD00001F580618A422CD0A1F568718A422AD040
:100CE00001F580618A4228D0A1F589618A4226D027
:100CF00001F580618A4225D0A1F568718A4224D02D
:100D000001F580618A4223D0A1F589618A4222D00F
:100D100001F580618A4221D0A1F568718A4220D014
:100D200001F580618A422BD14FF400112AE0202185
:100D300028E0202126E0202124E0202122E04FF499
:100D400000611FE04FF400611CE04FF4006119E006
:100D50004FF4006116E04FF4001113E04FF400115E
:100D600010E04FF400110DE00060024058640240B2
:100D700000640240B86002405860024010600240C7
:100D80004FF00061AB4A91601A68AB498A4254D96E
:100D9000A1F589618A422ED001F580618A422CD06A
:100DA000A1F568718A422AD001F580618A4228D073
:100DB000A1F589618A4226D001F580618A4225D059
:100DC000A1F568718A4224D001F580618A4223D05E
:100DD000A1F589618A4222D001F580618A4221D041
:100DE000A1F568718A4220D001F580618A421FD145
:100DF0004FF400211EE008211CE008211AE0082120
:100E000018E0082116E04FF4007113E04FF4007170
:100E100010E04FF400710DE04FF400710AE04FF460
:100E2000002107E04FF4002104E04FF4002101E02D
:100E30004FF00071814AD1600CE181498A4253D957
:100E4000A8398A422ED001F580618A422CD0A1F5C2
:100E500068718A422AD001F580618A4228D0A1F5C2
:100E600089618A4226D001F580618A4225D0A1F5A8
:100E700068718A4224D001F580618A4223D0A1F5AD
:100E800089618A4222D001F580618A4221D0A1F590
:100E900068718A4220D001F580618A421FD14FF4E7
:100EA00000211EE008211CE008211AE0082118E0BA
:100EB000082116E04FF4007113E04FF4007110E0C8
:100EC0004FF400710DE04FF400710AE04FF400217F
:100ED00007E04FF4002104E04FF4002101E04FF05F
:100EE0000071564A9160B5E056498A4253D9483953
:100EF0008A422ED001F580618A422CD0A1F568711A
:100F00008A422AD001F580618A4228D0A1F5896100
:100F10008A4226D001F580618A4225D0A1F5687108
:100F20008A4224D001F580618A4223D0A1F58961EB
:100F30008A4222D001F580618A4221D0A1F56871F0
:100F40008A4220D001F580618A421FD14FF40021EE
:100F50001EE008211CE008211AE0082118E0082101
:100F600016E04FF4007113E04FF4007110E04FF4FD
:100F700000710DE04FF400710AE04FF4002107E02A
:100F80004FF4002104E04FF4002101E04FF0007124
:100F9000284AD1605EE02C498A422ED001F580615A
:100FA0008A422CD0A1F568718A422AD001F580616D
:100FB0008A4228D0A1F589618A4226D001F5806154
:100FC0008A4225D0A1F568718A4224D001F580615A
:100FD0008A4223D0A1F589618A4222D001F580613D
:100FE0008A4221D0A1F568718A4220D001F5806142
:100FF0008A422BD14FF400212AE0082128E0082161
:1010000026E0082124E0082122E04FF400711FE0CF
:101010004FF400711CE04FF4007119E04FF40071BF
:1010200016E04FF4002113E04FF4002110E04FF4DC
:1010300000210DE00060024058640240006402405C
:10104000B860024058600240106002404FF00071EA
:10105000A34A91601A68A3498A4250D9A1F58961CF
:101060008A422ED001F580618A422CD0A1F56871A8
:101070008A422AD001F580618A4228D0A1F589618F
:101080008A4226D001F580618A4224D0A1F5687198
:101090008A4222D001F580618A4220D0A1F589617F
:1010A0008A421ED001F580618A421DD0A1F5687187
:1010B0008A421CD001F580618A421BD14FF48031F5
:1010C0001AE0894918E0884916E0874914E0864902
:1010D00012E0402110E040210EE040210CE04021D0
:1010E0000AE04FF4803107E04FF4803104E04FF420
:1010F000803101E04FF480017C4AD16002E17C49FB
:101100008A424FD9A8398A422ED001F580618A429D
:101110002CD0A1F568718A422AD001F580618A42FB
:1011200028D0A1F589618A4226D001F580618A42E2
:1011300024D0A1F568718A4222D001F580618A42EB
:1011400020D0A1F589618A421ED001F580618A42D2
:101150001DD0A1F568718A421CD001F580618A42D8
:101160001BD14FF480311AE05F4918E05E4916E068
:101170005D4914E05C4912E0402110E040210EE09E
:1011800040210CE040210AE04FF4803107E04FF4A9
:10119000803104E04FF4803101E04FF48001534A84
:1011A0009160AFE053498A424FD948398A422ED0E4
:1011B00001F580618A422CD0A1F568718A422AD05B
:1011C00001F580618A4228D0A1F589618A4226D042
:1011D00001F580618A4224D0A1F568718A4222D04B
:1011E00001F580618A4220D0A1F589618A421ED032
:1011F00001F580618A421DD0A1F568718A421CD038
:1012000001F580618A421BD14FF480311AE03649E2
:1012100018E0354916E0344914E0334912E0402122
:1012200010E040210EE040210CE040210AE04FF4A4
:10123000803107E04FF4803104E04FF4803101E069
:101240004FF48001264AD1605CE02B498A422ED0BF
:1012500001F580618A422CD0A1F568718A422AD0BA
:1012600001F580618A4228D0A1F589618A4226D0A1
:1012700001F580618A4224D0A1F568718A4222D0AA
:1012800001F580618A4220D0A1F589618A421ED091
:1012900001F580618A421DD0A1F568718A421CD097
:1012A00001F580618A4229D14FF4803128E00E494E
:1012B00026E00D4924E00C4922E00B4920E04021C2
:1012C0001EE040211CE040211AE0402118E04FF4CC
:1012D000803115E04FF4803112E04FF480310FE09F
:1012E0000060024058640240010080000064024037
:1012F000B860024058600240106002404FF4800124
:10130000B34A91601A68B3498A4254D9A1F58961F8
:101310008A422ED001F580618A422CD0A1F56871F5
:101320008A422AD001F580618A4228D0A1F58961DC
:101330008A4226D001F580618A4225D0A1F56871E4
:101340008A4224D001F580618A4223D0A1F58961C7
:101350008A4222D001F580618A4221D0A1F56871CC
:101360008A4220D001F580618A421FD14FF480115A
:101370001EE010211CE010211AE0102118E01021BD
:1013800016E04FF4806113E04FF4806110E04FF4F9
:1013900080610DE04FF480610AE04FF4801107E0B6
:1013A0004FF4801104E04FF4801101E04FF08061B0
:1013B000894AD16000E189498A4253D9A8398A42D1
:1013C0002ED001F580618A422CD0A1F568718A4245
:1013D0002AD001F580618A4228D0A1F589618A422C
:1013E00026D001F580618A4225D0A1F568718A4234
:1013F00024D001F580618A4223D0A1F589618A4217
:1014000022D001F580618A4221D0A1F568718A421B
:1014100020D001F580618A421FD14FF480111EE077
:1014200010211CE010211AE0102118E0102116E014
:101430004FF4806113E04FF4806110E04FF480615D
:101440000DE04FF480610AE04FF4801107E04FF4A3
:10145000801104E04FF4801101E04FF080615E4A9A
:101460009160A9E05E498A4253D948398A422ED018
:1014700001F580618A422CD0A1F568718A422AD098
:1014800001F580618A4228D0A1F589618A4226D07F
:1014900001F580618A4225D0A1F568718A4224D085
:1014A00001F580618A4223D0A1F589618A4222D068
:1014B00001F580618A4221D0A1F568718A4220D06D
:1014C00001F580618A421FD14FF480111EE0102186
:1014D0001CE010211AE0102118E0102116E04FF452
:1014E000806113E04FF4806110E04FF480610DE003
:1014F0004FF480610AE04FF4801107E04FF480114F
:1015000004E04FF4801101E04FF08061304AD16077
:1015100052E034498A422ED001F580618A422CD0B3
:10152000A1F568718A422AD001F580618A4228D0EB
:10153000A1F589618A4226D001F580618A4225D0D1
:10154000A1F568718A4224D001F580618A4223D0D6
:10155000A1F589618A4222D001F580618A4221D0B9
:10156000A1F568718A4220D001F580618A421FD1BD
:101570004FF480111EE010211CE010211AE0102110
:1015800018E0102116E04FF4806113E04FF4806101
:1015900010E04FF480610DE04FF480610AE04FF4F9
:1015A000801107E04FF4801104E04FF4801101E056
:1015B0004FF08061064A91600020D86483F83500BE
:1015C00083F834007047012070470120704700BF46
:1015D000006002405864024000640240B86002406B
:1015E000586002401060024030B40568029C44EA32
:1015F00003436B640368DA634368B3F5403F35D156
:1016000001F07F4501F47F0201F47F43C9B2846891
:101610001CB913432B43194325E0012C02D113437A
:10162000194320E0022C07D1D20C9B0AD20242EAD5
:10163000431343EAD10116E0032C0AD1ED0FD20C7B
:10164000DB0A920242EA431343EAC53343EAD1017B
:1016500009E02D0F120D1B0B120242EA031343EA9D
:10166000053343EA11110368996301E00368D96007
:1016700030BC7047704700BF002851D010B50446F9
:101680000268284B9A4203D0C021274803F090FB00
:101690006368002B18BFB3F5803F09D0B3F5003F56
:1016A00006D0B3F5403F03D0C1211F4803F080FBB3
:1016B000A368042B03D9C2211B4803F079FBE3681C
:1016C000B3F5804F03D3C321174803F071FB94F89F
:1016D000393013F0FF0F05D1002384F8383020464D
:1016E000FFF7C8FF022384F8393021680B6823F420
:1016F0004032636813430B6021684B6B23F0070291
:10170000A36813434B6321680B6C084A1A40E368D3
:1017100013430B640020E063012384F8393010BDCB
:101720000120704700B002405CF3000800C0FFFFDA
:101730002DE9F04182B0089E90F83840012C2CD061
:101740001D4690460F460446012380F83830022398
:1017500080F83930B6F5803F04D340F26D1111485E
:1017600003F026FBB5F5804F04D34FF4B7710D4855
:1017700003F01EFB2268136823F001031360009638
:101780002B46424639462046FFF72EFF2268136853
:1017900043F001031360002000E0022002B0BDE826
:1017A000F08100BF5CF3000870B504460D46036885
:1017B0001B6813F0010F30D0FEF724FE064627E029
:1017C0005168536803F00103C1F340110B430BD080
:1017D00020239360236801209860042384F8393023
:1017E000002384F8383070BDB5F1FF3F10D025B12B
:1017F000FEF708FE801B85420AD2002384F83830A9
:10180000E36B43F02003E363032084F8390070BDE9
:101810002268536813F0020FD2D02368DB6913F0FB
:10182000200F24D0FEF7EEFD06461BE05A6812F0AA
:10183000080F06D008229A60042384F8393001206A
:1018400070BDB5F1FF3F0DD025B1FEF7DBFD801B6C
:10185000854207D2E36B43F02003E363032084F85F
:10186000390070BD23685A6812F0100FDED023686B
:1018700002229A60236810229A60012384F839308A
:10188000002084F8380070BD90F83830012B00F04B
:10189000AD8070B50D460446012380F83830022330
:1018A00080F83930994204D940F24D31504803F064
:1018B0007FFA04EB05139B69B3F5804F04D340F224
:1018C0004E314B4803F074FA6368B3F5403F15D0CE
:1018D00004EB0513DB690A2B04D940F2513144486B
:1018E00003F066FA63684BB1AB1C1B01E358022B93
:1018F00004D94FF455713E4803F05AFA002D37D100
:101900002068436A3B49194004EB0513DB69A3F1E6
:101910000902012A0BD8AA1C1201A618A25843EAF0
:101920000242736803F07F4313430B4309E0AA1C90
:101930001201A618A25843EA0243726843EA0263FE
:101940000B434362206883692B4A1A4004EB05115C
:101950008B6913438361CB69093B012B3FD8023567
:1019600004EB05156B6823F07F432268936236E031
:101970002068C3691F49194004EB0513DB69A3F113
:101980000902012A0BD8AA1C1201A618A25843EA80
:101990000242736803F07F4313430B4309E0AA1C20
:1019A0001201A618A25843EA0243726843EA02638E
:1019B0000B43C361206803690F4A1A4004EB051109
:1019C0008B6913430361CB69093B012B07D80235AF
:1019D00004EB05156B6823F07F4322681362012333
:1019E00084F83930002084F8380070BD0220704738
:1019F0005CF30008F0FFFC0000C0FFFF2DE9F0479A
:101A000082B080460F46B24BB24A904218BF98420D
:101A10002BD003F50063C31A18BF012302F500623F
:101A2000904222D00BB3AC4BC31A18BF012302F56E
:101A30000062904219D0C3B1A84BC31A18BF01234A
:101A400002F50062904210D07BB1A54BC31A18BFBB
:101A5000012302F50062904207D033B1A14B9842B6
:101A600003D0C321A04803F0A3F93B881BB9C421CC
:101A70009D4803F09DF97B68112B18BF012B20D9DD
:101A8000022B1ED0122B1CD0984A934219D002F57B
:101A90008012934215D002F58012934211D0A2F524
:101AA000F81293420DD002F58012934209D002F54C
:101AB0008012934205D0032B03D0C5218A4803F03E
:101AC00077F9BB68022B03D9C621874803F070F968
:101AD0000025F7E00124AC403E682640B44240F0C7
:101AE000F0807B68122B18BF022B1CD13B690F2B97
:101AF00018BF0C2B07D90D2B05D00E2B03D0D721E7
:101B0000794803F055F9EA08083258F8220005F040
:101B1000070399000F238B4020EA03003B698B40A9
:101B2000034348F82230D8F800304FEA450A4FF016
:101B3000030909FA0AF96FEA090903EA09027B684D
:101B400003F0030303FA0AF31343C8F800307B6879
:101B50005A1E112B18BF012A01D9122B1BD1FB6869
:101B6000032B03D9EB21604803F022F9D8F80830A1
:101B700009EA0302FB6803FA0AF31343C8F80830C2
:101B8000D8F8043023EA04047B68C3F30013AB40A5
:101B90001C43C8F80440D8F80C3009EA0309BB68B4
:101BA00003FA0AF349EA0303C8F80C307B6813F020
:101BB000805F00F086804E4B5A6C42F480425A643B
:101BC0005B6C03F480430193019BA9088A1C494B79
:101BD00053F8220005F003039B000F229A4020EAED
:101BE00002003C4A904525D002F58062904523D002
:101BF00002F58062904521D002F5806290451FD0A9
:101C000002F5806290451DD002F5806290451BD0A0
:101C100002F58062904519D002F58062904517D098
:101C200002F58062904515D002F58062904513D18F
:101C3000092212E0002210E001220EE002220CE054
:101C400003220AE0042208E0052206E0062204E05E
:101C5000072202E0082200E00A2202FA03F303430B
:101C60000231244A42F82130234B1A68F34302EA36
:101C70000301786810F4803F01D046EA02011E4A51
:101C80001160526803EA0201786810F4003F01D045
:101C900046EA0201184A5160926803EA0201786834
:101CA00010F4801F01D046EA0201134A9160D26805
:101CB0001340796811F4001F01D046EA02030E4A6E
:101CC000D36001350F2D7FF605AF02B0BDE8F08778
:101CD000000402400000024000140240001C0240C8
:101CE00000240240002802408CF30008000011107C
:101CF0000038024000380140003C014038B505463C
:101D00000C4621B940F28D11044803F051F82B69BB
:101D10001C4201D0012038BD002038BD8CF30008E2
:101D200070B5064615460C4621B940F2AD1108487B
:101D300003F03EF8012D04D94FF4D771044803F0A5
:101D400037F80DB1B46170BD2404B46170BD00BF3B
:101D50008CF3000838B504460D4621B940F2C31192
:101D6000034803F025F861696940616138BD00BF2F
:101D70008CF30008F0B54D680468E368C3F30B43C7
:101D80001D44D2011444D4F8883003F47043C4F8DD
:101D90008830046816190B68E468C4F30B442344C4
:101DA000013343EA0543C6F88830CD680468E36828
:101DB000C3F30A031D441444D4F88C3003F4704375
:101DC000C4F88C30046816198B68E468C4F30A04FC
:101DD0002344013343EA0543C6F88C3003681344B7
:101DE000D3F8944024F00704C3F8944003681344E4
:101DF0000C69C3F8944091F831E091F832308F6962
:101E000006681644D6F89C400025C6F89C50066823
:101E1000164491F8304044EA0E2444EA034343EA6E
:101E20000763C6F89C3003681344D3F8984024F045
:101E3000FF04C3F89840036813444C69C3F8984002
:101E400003681344D3F8A0602D4C3440C3F8A0407D
:101E500003681344CE690C6A3443C3F8A040036896
:101E60001344D3F8AC40C3F8AC50036813444C6A35
:101E7000C3F8AC400B695BB1012B0BD0022B18BF30
:101E8000042B09D0032B09D0072B09D1022708E026
:101E9000042706E0032704E0022702E0022700E00F
:101EA000012704681444D4F8B03003F0E023C4F8E8
:101EB000B0300468144404F184058C6A04FB07F60E
:101EC0004B680C681C1B04FB07F3033343EA06430F
:101ED000EB6203681344D3F8B4500A4C2C40C3F8A7
:101EE000B44003681344C96AC3F8B41003681A44C1
:101EF000D2F8843043F00103C2F88430F0BD00BF53
:101F0000F8F8FFFF00F8FFFF704700BF002800F05F
:101F1000EA8038B504460268744B9A4203D09F2188
:101F2000734802F045FF6369B3F5805F03D3A021D6
:101F30006F4802F03DFFA369B3F5006F03D3A12101
:101F40006B4802F035FFE369B3F5805F03D3A2214C
:101F5000674802F02DFF236AB3F5006F03D3A32176
:101F6000634802F025FFA36AB3F5006F03D3A421F1
:101F70005F4802F01DFF636AB3F5805F03D3A521BC
:101F80005B4802F015FF236BB3F5006F03D3A62166
:101F9000574802F00DFFE36AB3F5805F03D3A72132
:101FA000534802F005FF6368002B18BFB3F1004FE0
:101FB00003D0A8214E4802F0FBFEA368002B18BFF7
:101FC000B3F1804F03D0A921494802F0F1FEE36844
:101FD000002B18BFB3F1005F03D0AA21444802F0E0
:101FE000E7FE2369002B18BFB3F1805F03D0AB215C
:101FF0003F4802F0DDFE94F8A13013F0FF0F05D149
:10200000002384F8A0302046FFF77EFF022384F8E7
:10201000A1302268936923F0704393612168886935
:102020006368A2681343E2681A43236913430343B6
:102030008B6121688A682F4B1A408A606569216824
:102040008868A26942EA054202438A602168CA6838
:102050001A40CA60E5692168C868226A42EA0542F6
:102060000243CA6021680A691A400A61656A2168E8
:102070000869A26A42EA054202430A61226851697C
:102080000B405361E06A22685169236B43EA0043C5
:102090000B43536194F8353094F8362012042068CD
:1020A000C16A01F07F41C1622168C86A42EA032225
:1020B00094F8343013430343CB622268536B43F0EC
:1020C000040353632268536B43F002035363226893
:1020D000936943F0010393610020C4F8A400012335
:1020E00084F8A13038BD0120704700BF006801406E
:1020F000BCF3000800F800F090F8A030012B00F0CD
:102100008A802DE9F04190460E460746012380F86B
:10211000A030022380F8A1309A4204D940F2C711BE
:102120003E4802F045FE3369072B04D94FF4E471B1
:102130003A4802F03DFEF369B3F5806F18BFB3F57E
:10214000C06F04D040F2C911344802F031FE336A46
:10215000052B18BF072B04D04FF4E5712F4802F070
:1021600027FE3368B3F5805F04D340F2CB112B48D0
:1021700002F01EFE7368B3F5803F04D34FF4E6719E
:10218000264802F015FEB368B3F5805F04D340F231
:10219000CD11224802F00CFEF368B3F5803F04D362
:1021A0004FF4E7711D4802F003FEB369FF2B04D919
:1021B00040F2CF11194802F0FBFDB36AB3F5005F9E
:1021C00004D34FF4E871154802F0F2FDF36AB3F559
:1021D000006F04D340F2D111104802F0E9FD34241D
:1021E00004FB0874383435460FCD0FC40FCD0FC42F
:1021F0000FCD0FC42B682360424631463846FFF7A7
:10220000B9FD3A680123536287F8A130002087F8AE
:10221000A000BDE8F0810220704700BFBCF30008B9
:1022200090F8A100704700BF10B582B01C4B1A6C2B
:1022300042F080521A641B6C03F080530193019B9F
:10224000184A136843F480331360FEF7DBF8044642
:1022500005E0FEF7D7F8001BB0F57A7F1AD8114BCE
:102260005B6813F4803FF4D00E4A136843F40033E4
:102270001360FEF7C7F8044605E0FEF7C3F8001B3D
:10228000B0F57A7F08D8074B5B6813F4003FF4D0B1
:10229000002002E0032000E0032002B010BD00BFD8
:1022A000003802400070004030B583B00446036837
:1022B0000F2B04D94FF480719D4802F079FD2368FB
:1022C00013F0010F00F094806368002B18BFB3F582
:1022D000803F07D0B3F5A02F04D04FF4837194480A
:1022E00002F066FD934B9B6803F00C03042B0AD0AD
:1022F000904B9B6803F00C03082B0DD18D4B5B6852
:1023000013F4800F08D08B4B1B6813F4003F6FD081
:102310006368002B6CD15BE2864B1A6822F4803232
:102320001A601A6822F480221A601A6822F4803235
:102330001A60FEF767F8054607E0FEF763F8401BF2
:1023400041F28833984200F245827A4B1B6813F4BD
:10235000003FF2D1774A136823F480331360636837
:10236000B3F5803F09D11346126822F480221A6027
:102370001A6842F480321A6015E0B3F5A02F09D133
:102380006C4B1A6842F480221A601A6842F4803258
:102390001A6008E0674B1A6822F480221A601A68F3
:1023A00022F480321A6063688BB1FEF72BF8054681
:1023B00007E0FEF727F8401B41F28833984200F20D
:1023C0000B825C4B1B6813F4003FF2D010E0FEF769
:1023D00019F8054607E0FEF715F8401B41F288336F
:1023E000984200F2FB81534B1B6813F4003FF2D17B
:1023F000236813F0020F6ED0E368012B04D940F27A
:1024000047114B4802F0D4FC23691F2B04D94FF429
:10241000A471474802F0CCFC464B9B6813F00C0FAC
:102420000AD0444B9B6803F00C03082B1BD1414B93
:102430005B6813F4800F16D13E4B1B6813F0020F3C
:1024400003D0E368012B40F0CB813A48036823F0C6
:10245000F8012369F82292FAA2F2B2FA82F29340CA
:102460000B43036037E0E3680BB3324A136843F071
:1024700001031360FDF7C6FF054605E0FDF7C2FF47
:10248000401B642800F2AE812A4B1B6813F0020F38
:10249000F4D02848036823F0F8012369F82292FA5F
:1024A000A2F2B2FA82F293400B43036013E0214A96
:1024B000136823F001031360FDF7A4FF054605E050
:1024C000FDF7A0FF401B642800F28E81194B1B68AA
:1024D00013F0020FF4D1236813F0080F37D06369AB
:1024E000012B04D94FF4C471114802F061FC6369F7
:1024F000A3B1104A536F43F001035367FDF782FF06
:10250000054605E0FDF77EFF401B642800F26E8162
:10251000084B5B6F13F0020FF4D018E0054A536FBD
:1025200023F001035367FDF76DFF05460AE000BF86
:10253000FCF3000800380240FDF764FF401B6428EC
:1025400000F25681B54B5B6F13F0020FF4D1236894
:1025500013F0040F00F09280A368052B18BF012B25
:1025600004D94FF4D971AE4802F022FCAB4B1A6C7F
:1025700042F080521A641B6C03F080530193019B5C
:10258000A84A136843F480731360FDF73BFF0546C8
:1025900005E0FDF737FF401B642800F22B81A14BBB
:1025A0001B6813F4807FF4D09C4B1A6F22F0010259
:1025B0001A671A6F22F004021A671A6F22F00102DA
:1025C0001A67FDF71FFF054607E0FDF71BFF401BDD
:1025D00041F28833984200F20F81904B1B6F13F049
:1025E000020FF2D18D4A136F23F001031367A36822
:1025F000012B09D11346126F22F004021A671A6FD9
:1026000042F001021A6714E0052B09D1834B1A6FBF
:1026100042F004021A671A6F42F001021A6708E0DA
:102620007E4B1A6F22F004021A671A6F22F0010221
:102630001A67A3688BB1FDF7E5FE054607E0FDF7D5
:10264000E1FE401B41F28833984200F2D780734B81
:102650001B6F13F0020FF2D010E0FDF7D3FE05461A
:1026600007E0FDF7CFFE401B41F28833984200F2AD
:10267000C7806A4B1B6F13F0020FF2D1A369022BC4
:1026800004D94FF4FB71664802F092FBA369002B5A
:1026900000F0B880614A926802F00C02082A00F04B
:1026A000B380022B7FD1E369002B18BFB3F5800FF5
:1026B00004D040F2FF115A4802F07AFB236A023B31
:1026C0003D2B04D94FF40071554802F071FB636A49
:1026D000C03BF02B04D940F20121514802F068FBC5
:1026E000A36A022B18BF042B08D0062B06D0082B98
:1026F00004D040F202214A4802F05AFBE36A023B4E
:102700000D2B04D940F20321454802F051FB434A06
:10271000136823F080731360FDF774FE054604E030
:10272000FDF770FE401B642870D83C4B1B6813F00B
:10273000007FF5D1216A636A47F6C07292FAA2F26D
:10274000B2FA82F293401943A36A5B085A1E4FF40F
:10275000403393FAA3F3B3FA83F302FA03F30B4380
:10276000E2691343E26A4FF0706191FAA1F1B1FAA4
:1027700081F18A40134343F00053284A53601368A1
:1027800043F080731360FDF73DFE044604E0FDF75F
:1027900039FE001B64283BD8204B1B6813F0007FD8
:1027A000F5D0002037E01D4A136823F080731360D2
:1027B000FDF728FE044604E0FDF724FE001B642814
:1027C00028D8164B1B6813F0007FF5D1002022E0BB
:1027D000012020E003201EE003201CE003201AE07B
:1027E000012018E0032016E0032014E0032012E08B
:1027F000032010E003200EE003200CE003200AE099
:10280000032008E0002006E0012004E0032002E0AD
:10281000032000E0032003B030BD00BF00380240B9
:10282000FCF300080070004070B504460D460368D4
:10283000013B0E2B04D940F26221894802F0B8FA1C
:102840000F2D04D940F26321854802F0B1FA854B7F
:102850001B6803F00F039D4240F28F80814A13688A
:1028600023F00F032B431360136803F00F039D4203
:1028700040F05781236813F0020F1ED0A368002B8D
:1028800018BF802B12D0902B10D0A02B0ED0B02BC5
:102890000CD0C02B0AD0D02B08D0E02B06D0F02BC8
:1028A00004D040F279216E4802F082FA6E498B68BA
:1028B00023F0F002A36813438B60236813F0010F29
:1028C00000F0EB806368022B04D94FF42071644858
:1028D00002F06EFA6268012A05D1634B1B6813F49B
:1028E000003F0ED11FE1022A05D15F4B1B6813F098
:1028F000007F06D119E15C4B1B6813F0020F00F05A
:10290000168159498B6823F0030313438B60FDF74D
:1029100079FD05466368012B0FD107E0FDF772FDD5
:10292000401B41F28833984200F203814E4B9B6872
:1029300003F00C03042BF1D1AFE0022B17D107E019
:10294000FDF760FD401B41F28833984200F2F380AE
:10295000454B9B6803F00C03082BF1D19DE0FDF77C
:1029600051FD401B41F28833984200F2E6803E4B15
:102970009B6813F00C0FF2D18FE0236813F0020F65
:102980001ED0A368002B18BF802B12D0902B10D024
:10299000A02B0ED0B02B0CD0C02B0AD0D02B08D03F
:1029A000E02B06D0F02B04D04FF432712C4802F00B
:1029B000FFF92D498B6823F0F002A36813438B6065
:1029C000236813F0010F5DD06368022B04D940F235
:1029D000CF21234802F0ECF96268012A05D1224B8D
:1029E0001B6813F4003F0ED1A9E0022A05D11E4B4B
:1029F0001B6813F0007F06D1A3E01B4B1B6813F08C
:102A0000020F00F0A08018498B6823F003031343E2
:102A10008B60FDF7F7FC06466368012B0FD107E0DA
:102A2000FDF7F0FC801B41F28833984200F28D8064
:102A30000D4B9B6803F00C03042BF1D122E0022B19
:102A40001BD106E0FDF7DEFC801B41F28833984283
:102A50007DD8054B9B6803F00C03082BF2D111E0E5
:102A6000FCF30008003C024000380240FDF7CAFCBD
:102A7000801B41F2883398426BD8384B9B6813F027
:102A80000C0FF3D1364A136823F00F032B43136066
:102A9000136803F00F039D425DD1236813F0040F08
:102AA0001AD0E368002B18BFB3F5805F0DD0B3F5E3
:102AB000A05F0AD0B3F5C05F07D0B3F5E05F04D0E4
:102AC00040F21E31274802F073F924498B6823F441
:102AD000E052E36813438B60236813F0080F1BD0A8
:102AE0002369002B18BFB3F5805F0DD0B3F5A05F4D
:102AF0000AD0B3F5C05F07D0B3F5E05F04D040F271
:102B00002531184802F054F9144A936823F46043BD
:102B1000216943EAC10393600F20FDF741FC0020C7
:102B200070BD012070BD012070BD012070BD01206D
:102B300070BD032070BD032070BD032070BD012057
:102B400070BD012070BD012070BD032070BD032049
:102B500070BD032070BD012070BD00BF0038024071
:102B6000003C0240FCF30008254B9B6803F00C037B
:102B7000042B3FD0082B01D02248704710B4204BC3
:102B8000586800F03F005B6813F4800F10D01E4BB4
:102B9000B3FBF0F01A4B5A6847F6C0710A4091FA3D
:102BA000A1F3B3FA83F322FA03F303FB00F310E07B
:102BB000144BB3FBF0F0124B5A6847F6C07402EAAC
:102BC000040194FAA4F2B2FA82F221FA02F202FBB0
:102BD00000F30B4A506800F440324FF4403090FA52
:102BE000A0F0B0FA80F022FA00F001304000B3FB10
:102BF000F0F001E0044870475DF8044B704700BFF7
:102C0000003802400024F40040787D0108B5FFF749
:102C1000ABFF084B9B6803F0F002F02393FAA3F399
:102C2000B3FA83F322FA03F3034AD35CD840034B8D
:102C3000186008BD00380240ECF300080C000020CA
:102C4000F0B583B004460268634B13401BB987217B
:102C5000624802F0ADF8236813F0010F16D0636BE1
:102C6000002B18BFB3F5000F03D08D215B4802F095
:102C70009FF85B4B9A6822F400029A609968626B35
:102C80000A439A60636B1BB1002502E0002500E057
:102C90000125236813F4002F1DD0E36B002B18BF10
:102CA000B3F5801F06D0B3F5001F03D09D214B481C
:102CB00002F07EF84A49D1F88C3023F44012E36BDD
:102CC0001343C1F88C30E36BB3F5801F00D10125AD
:102CD0001BB1002602E0002600E00126236813F461
:102CE000801F1CD0236C002B18BFB3F5800F06D0BB
:102CF000B3F5000F03D0B121384802F059F8384934
:102D0000D1F88C3023F44002236C1343C1F88C308B
:102D1000236CB3F5800F00D1012503B90126236888
:102D200013F0807F00D0012513F0200F6AD02C4BC8
:102D30001A6F236B534013F4407F63D0284B1A6CF7
:102D400042F080521A641B6C03F080530193019B84
:102D5000244A136843F480731360FDF753FB07465E
:102D600005E0FDF74FFBC01B642800F252841D4BA9
:102D70001B6813F4807FF4D0194B196F21F4407055
:102D80001A6F42F480321A671A6F22F480321A677F
:102D9000186711F0020F10D0FDF734FB074607E06B
:102DA000FDF730FBC01B41F28833984200F23384B8
:102DB0000B4B1B6F13F0020FF2D0236B03F4407226
:102DC000B2F5407F12D10648826822F4F811064A13
:102DD0001A400A4382600EE0F9FFFF012CF400085C
:102DE0000038024000700040FFFCFF0FBB4A9368B0
:102DF00023F4F8139360B94A116F236BC3F30B03E9
:102E00000B431367236813F0100F17D0A36B002B2D
:102E100018BFB3F1807F04D040F20111B04801F037
:102E2000C7FFAE4BD3F88C2022F08072C3F88C2001
:102E3000D3F88C10A26B0A43C3F88C20236813F4D8
:102E4000804F16D0636E002B18BFB3F5803F07D0BC
:102E5000B3F5003F04D040F20B11A14801F0A8FFE8
:102E60009E49D1F8903023F44032636E1343C1F889
:102E70009030236813F4004F16D0A36E002B18BFB8
:102E8000B3F5802F07D0B3F5002F04D040F2151111
:102E9000934801F08DFF9149D1F8903023F44022FE
:102EA000A36E1343C1F89030236813F4803F16D00B
:102EB000E36E002B18BFB3F5801F07D0B3F5001FDA
:102EC00004D040F21F11864801F072FF8349D1F807
:102ED000903023F44012E36E1343C1F8903023681E
:102EE00013F4003F16D0236F002B18BFB3F5800FEB
:102EF00007D0B3F5000F04D040F22911784801F053
:102F000057FF7649D1F8903023F44002236F1343E2
:102F1000C1F89030236813F0400F14D0636C032B7A
:102F200018BF012B06D9022B04D040F233116C4894
:102F300001F03EFF6949D1F8903023F00302636C41
:102F40001343C1F89030236813F0800F16D0A36CA0
:102F5000002B18BF042B08D00C2B06D0082B04D054
:102F600040F23D115E4801F023FF5C49D1F89030FA
:102F700023F00C02A36C1343C1F89030236813F4C0
:102F8000807F16D0E36C002B18BF102B08D0302B9D
:102F900006D0202B04D040F24711514801F008FF21
:102FA0004E49D1F8903023F03002E36C1343C1F85E
:102FB0009030236813F4007F16D0236D002B18BFC8
:102FC000402B08D0C02B06D0802B04D040F25111EA
:102FD000434801F0EDFE4149D1F8903023F0C002A2
:102FE000236D1343C1F89030236813F4806F19D018
:102FF000636D002B18BFB3F5807F0AD0B3F5407F17
:1030000007D0B3F5007F04D040F25B11344801F0E3
:10301000CFFE3249D1F8903023F44072636D1343F0
:10302000C1F89030236813F4006F19D0A36D002B02
:1030300018BFB3F5806F0AD0B3F5406F07D0B3F572
:10304000006F04D040F26511254801F0B1FE23491C
:10305000D1F8903023F44062A36D1343C1F890304F
:10306000236813F4805F19D0E36D002B18BFB3F50C
:10307000805F0AD0B3F5405F07D0B3F5005F04D09E
:1030800040F26F11164801F093FE1449D1F89030C8
:1030900023F44052E36D1343C1F89030236813F4D6
:1030A000005F1FD0236E002B18BFB3F5804F0AD0EE
:1030B000B3F5404F07D0B3F5004F04D040F279117B
:1030C000074801F075FE0549D1F8903023F44042DD
:1030D000236E1343C1F8903004E000BF0038024073
:1030E0002CF40008236813F4800F13D0A36FB3F1FE
:1030F000806F18BF002B04D040F28311BD4801F04F
:1031000057FEBD49D1F8903023F08062A36F13437E
:10311000C1F89030236813F4001F18D0E36FB3F1A7
:10312000006F18BF002B04D040F28D11B14801F0A0
:103130003FFEB149D1F8903023F00062E36F1343B2
:10314000C1F89030E36FB3F1006F00D1012623681E
:1031500013F0080F00D0012613F4802F19D0636FED
:10316000002B18BFB3F1807F0AD0B3F1007F07D0E6
:10317000B3F1407F04D04FF4D2719E4801F018FEA5
:103180009D49D1F8903023F04072636F1343C1F82A
:103190009030236813F4000F15D0D4F88030B3F1C9
:1031A000805F18BF002B04D04FF4D771914801F015
:1031B000FFFD9149D1F8903023F08052D4F880304F
:1031C0001343C1F8903025B92368B3F1007F40F074
:1031D0002081894A136823F080631360FDF712F998
:1031E000054605E0FDF70EF9401B642800F2158244
:1031F000814B1B6813F0006FF4D16368313BB3F56A
:10320000C07F04D340F2C9117A4801F0D1FD236890
:1032100013F0010F2ED0636B63BBA368023B052B39
:1032200004D940F2CF11734801F0C2FD7248D0F8C2
:10323000843003F440334FF4403292FAA2F2B2FAEF
:1032400082F223FA02F2D0F8843003F070634FF078
:10325000706191FAA1F1B1FA81F123FA01F1636889
:10326000120442EA831343EA0163A26843EA027349
:10327000C0F88430236813F4002F03D0E26BB2F55A
:10328000801F06D013F4801F42D0236CB3F5800F4B
:103290003ED1E368023B0D2B04D940F2DF115548C3
:1032A00001F086FD636A013B1F2B04D940F2E11156
:1032B000504801F07DFD5049D1F8843003F440338B
:1032C0004FF4403292FAA2F2B2FA82F223FA02F2F8
:1032D000D1F8843003F0E0434FF0E04090FAA0F0E2
:1032E000B0FA80F023FA00F06368120442EA831215
:1032F000E36842EA036343EA0073C1F88430D1F81B
:103300008C3023F01F02636A013B1343C1F88C30F9
:10331000236813F0807F2CD02369023B062B04D94D
:103320004FF4FA71334801F043FD334DD5F8840072
:1033300000F070624FF0706393FAA3F3B3FA83F373
:1033400022FA03F0D5F8841001F0E0424FF0E04398
:1033500093FAA3F3B3FA83F322FA03F167682369BC
:103360001A0442EA871242EA006343EA0173C5F88D
:103370008430236813F0007F32D06368313BB3F5AB
:10338000C07F04D340F203211A4801F011FD2369E4
:10339000023B062B04D94FF40171164801F008FDD9
:1033A000A368023B052B04D940F20521114801F026
:1033B000FFFCE368023B0D2B04D940F206210D48C7
:1033C00001F0F6FC626823691B0443EA8213E26899
:1033D00043EA0263A26843EA0273074AC2F88430F0
:1033E000054A136843F080631360FDF70BF8054648
:1033F0000AE000BF2CF4000800380240FDF702F894
:10340000401B642800F20B81894B1B6813F0006F8E
:10341000F4D0002E00F00581854A136823F0805314
:103420001360FCF7EFFF054605E0FCF7EBFF401BE0
:10343000642800F2F8807E4B1B6813F0005FF4D123
:103440006369313BB3F5C07F04D34FF40D71794804
:1034500001F0AEFC236813F4002F01D0E26B2AB117
:1034600013F4801F42D0236C002B3FD1A369023B91
:103470000D2B04D940F23B216E4801F099FCA36A60
:10348000013B1F2B04D940F23D216A4801F090FC1A
:103490006749D1F8883003F440334FF4403292FA50
:1034A000A2F2B2FA82F223FA02F2D1F8883003F0E3
:1034B000E0434FF0E04090FAA0F0B0FA80F023FA39
:1034C00000F06369120442EA8312A36942EA0363CB
:1034D00043EA0073C1F88830D1F88C3023F4F853F4
:1034E000A26A013A43EA0223C1F88C30236813F43C
:1034F000001F30D0E36FB3F1006F2CD1236A023B81
:10350000062B04D94FF414714A4801F051FC484D80
:10351000D5F8883003F070634FF0706090FAA0F037
:10352000B0FA80F023FA00F0D5F8882002F0E042EB
:103530004FF0E04393FAA3F3B3FA83F322FA03F1D3
:103540006669236A1A0442EA861242EA006343EA81
:103550000173C5F88830236813F0080F44D0E3697D
:10356000023B052B04D940F25F21324801F020FCD8
:10357000E36A002B18BFB3F5803F0AD0B3F5003FD4
:1035800007D0B3F5403F04D04FF41871294801F03B
:103590000FFC2749D1F8883003F070634FF070605A
:1035A00090FAA0F0B0FA80F023FA00F0D1F8882069
:1035B00002F440324FF4403393FAA3F3B3FA83F3A7
:1035C000DA406369120442EA831343EA0063E26962
:1035D00043EA0273C1F88830D1F88C3023F44032CA
:1035E000E36A1343C1F88C30114A136843F08053E7
:1035F0001360FCF707FF044604E0FCF703FF001B21
:10360000642812D80A4B1B6813F0005FF5D0002025
:103610000CE003200AE0032008E0032006E003207A
:1036200004E0002002E0032000E0032003B0F0BD2E
:10363000003802402CF4000801684B6BC3F3C01340
:103640004FF4803203E04B6BC3F3C013013A83F0B5
:103650000103002A0CBF002303F00103002BF2D169
:1036600022B140F2FF538B63002070470320704764
:1036700001684B6B13F0450F14BF012300234FF477
:10368000803206E04B6B13F0450F14BF012300237B
:10369000013A83F00103002A0CBF002303F0010369
:1036A000002BEFD14B6BC3F38003002A14BF1A46E3
:1036B00043F001021AB104238B63032070474B6B64
:1036C00013F0400F03D040238B6300207047292064
:1036D000704700BF03685A6B12F0450FFAD05A6B5F
:1036E00012F0040F03D004229A630320704740F2C3
:1036F000FF529A630020704703685A6B12F0450F1F
:10370000FAD05A6B12F0040F03D004229A630320FC
:1037100070475A6B12F0010F02D001209863704776
:1037200040F2FF529A630020704700BF38B503682B
:103730005A6B12F0450FFAD05A6B12F0040F03D0F7
:1037400004229A63032038BD5A6B12F0010F02D095
:103750000120986338BD0D460446184601F070FA02
:10376000A84244D1236840F2FF529A6300212068A6
:1037700001F06AFA334B0340DBB300283BDB10F067
:10378000804F3AD110F0005F39D110F0805F38D10E
:1037900010F0006F37D110F0806F36D110F0807FBD
:1037A00035D110F4000F34D110F4800F33D110F460
:1037B000001F32D110F4801F31D110F4002F30D10E
:1037C00010F4802F2FD110F4003F2ED110F4803F41
:1037D0002DD110F4004F2CD110F4804F2BD110F4C8
:1037E000005F2AD110F0080F29D01A2038BD102010
:1037F00038BD002038BD1C2038BD092038BD0A2046
:1038000038BD0B2038BD0C2038BD0D2038BD0E2032
:1038100038BD0F2038BD102038BD112038BD122012
:1038200038BD132038BD142038BD152038BD1620F2
:1038300038BD172038BD182038BD192038BD0020EC
:1038400038BD00BF08E0FFFDF0B587B00446002595
:103850008DF803500268536823F480735360006846
:1038600001F0A2F90120FCF7D3FD2268536843F46C
:103870008073536001950295039504954FF480631E
:10388000059301A9206801F097F92046FFF7D4FEBF
:103890008DF803009DF8033013F0FF0F03D09DF85F
:1038A0000300C0B290E04FF4D57301930823029354
:1038B0004023039301A9206801F07EF92046FFF719
:1038C000D7FE8DF803009DF8033013F0FF0F04D1ED
:1038D000012323624FF0804700E00027002301937B
:1038E0003725029501A9206801F066F9294620468E
:1038F000FFF71CFF8DF803009DF8033013F0FF0F56
:1039000043D05EE0002301933726029640220392C3
:1039100004934FF48063059301A9206801F04CF9EA
:1039200031462046FFF702FF8DF803009DF8033073
:1039300013F0FF0F03D09DF80300C0B244E0234B07
:103940003B430193292302934023039300230493D1
:103950004FF48063059301A9206801F02DF92046FA
:10396000FFF7B8FE8DF803009DF8033013F0FF0F4A
:1039700003D09DF80300C0B226E00021206801F0CA
:1039800063F90246C00F013502E0002005460246F9
:1039900080F001004FF6FE739D428CBF002000F0C6
:1039A00001000028AED19D4206D91B238DF80330BB
:1039B0009DF80300C0B207E012F0804F01D002234F
:1039C00023629DF80300C0B207B0F0BD0000108074
:1039D00030B587B004460192072502954023039332
:1039E000002304934FF48063059301A9006801F05C
:1039F000E3F829462046FFF799FE07B030BD00BF27
:103A000070B503685C6B14F0450FFAD05C6B14F072
:103A1000040F03D004229A63032070BD5C6B14F082
:103A2000010F02D00120986370BD16460D46044672
:103A3000184601F005F9A84219D1236840F2FF5257
:103A40009A630021206801F0FFF810F4604F03D161
:103A5000000C3080002070BD10F4005F09D110F41C
:103A6000804F08D110F4004F07D00F2070BD1020F8
:103A700070BD132070BD102070BD002070BD00BF50
:103A800030B587B004460D4600220092436A1B04FD
:103A900001930D2302934023039304924FF4806318
:103AA000059301A9006801F087F82068436B13F0C3
:103AB000450FFAD0436B13F0040F03D00423836344
:103AC000032093E0436B13F0010F03D001238363C2
:103AD00018468BE001F0B4F80D285ED1236840F25F
:103AE000FF529A630021206801F0AEF80090009B1D
:103AF000C3F343232B70009A3D4B1340002B4ED051
:103B0000009B002B4DDB009B13F0804F4BD1009BA3
:103B100013F0005F49D1009B13F0805F47D1009BF9
:103B200013F0006F45D1009B13F0806F43D1009BD1
:103B300013F0807F41D1009B13F4000F3FD1009B15
:103B400013F4800F3DD1009B13F4001F3BD1009B69
:103B500013F4801F39D1009B13F4002F37D1009B41
:103B600013F4802F35D1009B13F4003F33D1009B19
:103B700013F4803F31D1009B13F4004F2FD1009BF1
:103B800013F4804F2DD1009B13F4005F2BD1009BC9
:103B900013F0080F29D01A2028E0102026E000207A
:103BA00024E01C2022E0092020E00A201EE00B2057
:103BB0001CE00C201AE00D2018E00E2016E00F206B
:103BC00014E0102012E0112010E012200EE013206B
:103BD0000CE014200AE0152008E0162006E017206B
:103BE00004E0182002E0192000E0002007B030BDFA
:103BF00008E0FFFD30B587B004460123ADF8023080
:103C0000006800F0D5FF00286ED0236A042B28D06E
:103C10000023019302220292C022039204934FF4E4
:103C20008063059301A9206800F0C6FF2046FFF7D6
:103C300063FD0546002859D10021206801F004F8F1
:103C4000A0630421206800F0FFFFE06308212068E2
:103C500000F0FAFF20640C21206800F0F5FF60649A
:103C600000E00025236A062B18BF012B01D9022B87
:103C70000FD1032502954023039301A9206800F08A
:103C80009BFF0DF1020229462046FFF7B9FE0546CB
:103C900068BB236A042B2BD0BDF8023063621B047F
:103CA000019309230293C023039301A9206800F024
:103CB00083FF2046FFF720FD0546D8B90021206884
:103CC00000F0C2FFA0620421206800F0BDFFE062A6
:103CD0000821206800F0B8FF20630C21206800F064
:103CE000B3FF6063284605E0252003E002E001E021
:103CF0002846FFE707B030BDF0B58FB004460E464A
:103D00000023019302930822099210250A9540226C
:103D10000B920C934FF480630D9309A9006800F097
:103D20004BFF29462046FFF701FD002876D1636A44
:103D3000AB40099337250A9509A9206800F03CFF9C
:103D400029462046FFF7F2FC002868D14FF0FF33E8
:103D5000039308230493302305930223069300253D
:103D600007950123089303A9206800F08DFF0995AA
:103D700033250A9509A9206800F01EFF2946204630
:103D8000FFF7D4FC054600284AD1002709E0436B21
:103D900013F4001F05D000F0FDFE01AB43F827002F
:103DA00001372068426B40F22A431A42EFD0436B3E
:103DB00013F0080F03D008238363042030E0436B23
:103DC00013F0020F03D002238363184628E0436BED
:103DD00013F0200F03D020238363062020E040F25D
:103DE000FF53836301990B0203F47F0343EA0163EA
:103DF0000A0A02F47F42134343EA11637360029993
:103E00000B0203F47F0343EA01630A0A02F47F42D0
:103E1000134343EA11633360284601E000E0FFE703
:103E20000FB0F0BD30B589B0044600210191029178
:103E3000006800F009FF10F0007F2AD101A9204698
:103E4000FFF75AFF38BB029B13F4802F24D0636A1C
:103E50001B04039337250495402305930023069301
:103E60004FF48063079303A9206800F0A5FE29465C
:103E70002046FFF75BFC88B90223039306250495CF
:103E800003A9206800F098FE29462046FFF74EFC63
:103E900004E00E2002E001E02520FFE709B030BD7C
:103EA00030B589B00446002101910291006800F00C
:103EB000CBFE10F0007F2AD101A92046FFF71CFF9E
:103EC00038BB029B13F4803F24D0636A1B04039326
:103ED0003725049540230593002306934FF4806310
:103EE000079303A9206800F067FE29462046FFF7E4
:103EF0001DFC88B9002303930625049503A92068B7
:103F000000F05AFE29462046FFF710FC04E00E2080
:103F100002E001E02520FFE709B030BD704700BF97
:103F20002DE9F003034690F8202081F85620828C7A
:103F3000A1F85420826A900F0870C2F38360487021
:103F4000C2F301628A7093F82A20CA7093F829207C
:103F50000A7193F828204A7193F82F201201CA8021
:103F6000D88DCA8892B2C0F303142243CA8000F0ED
:103F70000F00087293F82D20D0094872C2F3801008
:103F80008872C2F34010C872C2F300100873002098
:103F90004873186A012844D8920202F440620A6108
:103FA000DA6A0869920002F47F7202430A611A6BAE
:103FB000086940EA92700861C2F3C2600875C2F3F2
:103FC00002624A755A8ED0B244098C75C0F38200E1
:103FD000C875520002F006020A7693F83120087E76
:103FE00040EAD21008760E69013600208E64C8645B
:103FF0000C7E0234012707FA04F44FEAE479A4FBAB
:10400000064506FB0955C1E912450E7AF6B207FAD4
:1040100006F60E65A6FB048906FB0599C1E912891F
:104020001EE002281BD1DA6A120402F47C120A6133
:1040300093F833000A6942EA00220A6193F83200D9
:104040000A6902430A6193F831200C690134E404DF
:1040500000208C64C8644FF400740C6500E02920D3
:10406000C2F380144C76520002F07E028A761A6BFC
:104070008D7EC2F3C0142C438C7602F07F02CA7688
:104080005A6B140ED50F0D77C2F341754D77C2F3FD
:1040900082628A77A20002F00C02CA77DA8ED4B26A
:1040A000CD7F45EA9415CD77C4F3401481F82040C4
:1040B000002481F8214002F0010281F822205C6B8B
:1040C000240AE2B2D50981F82350C2F3801581F8A1
:1040D0002450C2F3401581F82550C2F3001581F831
:1040E0002650C2F3810281F8272004F0030481F8EE
:1040F00028405A6BC2F3460281F82920012481F836
:104100002A4093F83B2081F82C2093F83A201202A1
:10411000CA8593F83950CA8D92B22A43CA859A6BE0
:1041200012060A6393F83F500A6B42EA05420A639B
:10413000DA8F0D6B120202F47F422A430A6393F86E
:104140003D500A6B2A430A6393F83C2081F83420DF
:1041500093F8432081F83520B3F8422012068A6391
:104160001A6C120A8D6B120402F47F022A438A63CE
:104170001A6C8D6B120202F47F422A438A6393F811
:1041800047508A6B2A438A6393F8462091F83C5043
:1041900045EA121581F83C50120202F47062CA8797
:1041A00093F84550CA8F92B22A43CA875B6CC3F317
:1041B000460381F8403081F84140BDE8F003704784
:1041C00070B58CB005460E4600248DF82F4004775C
:1041D000FFF7A4FE059406940794089409947623A7
:1041E0000A9308AB93E807008DE8070005AB0ECBF8
:1041F000286800F067FC2846FFF726FB8DF82F00A3
:104200009DF82F3013F0FF0F03D09DF82F00C0B2A0
:1042100031E02846FFF7EEFC8DF82F009DF82F3097
:1042200013F0FF0F03D09DF82F00C0B223E03146FA
:104230002846FFF775FE8DF82F009DF82F3013F0FC
:10424000FF0F08D1B6F85420120400232846FFF7C8
:10425000BFFB8DF82F002B4653F8104B93E8070057
:104260008DE80700043595E80E00204600F02AFC92
:104270009DF82F00C0B20CB070BD00BF036A032BC5
:1042800030D0022B30D870B58AB00E460446B1F556
:10429000805F0BD0B1F5006F03D1FFF7C3FD05467A
:1042A00007E029B9FFF7FCFD054602E0272500E0FD
:1042B0002625DDB963680493A3680593E368069334
:1042C000079663690893A369099324680AAB13E905
:1042D00007008DE8070004AB0ECB204600F0F2FB90
:1042E000284604E0272070470020704728460AB07F
:1042F00070BD00BF30B587B00446002301930C2584
:1043000002954022039204934FF48063059301A920
:10431000006800F051FC29462046FFF707FA07B075
:1043200030BD00BF2DE9F0438DB004460E469146E6
:10433000149D159F02680021D162026A022A05D1EC
:104340004FEA592242EAC3594FF4007507954FF0DE
:104350001008CDF820804023099300230A934FF4DE
:1043600080630B9307A9206800F026FC4146204695
:10437000FFF7DCF9002840F095804FF0FF33019300
:1043800007FB05F502959023039302230493002372
:1043900005930123069301A9206800F075FC012F05
:1043A00002D91223089301E0112308930CA941F8C4
:1043B000149D206800F000FC012F1CD9122120461A
:1043C000FFF7B4F9804680B16DE05B6B13F4004FEA
:1043D0000BD006E0206800F0DDFB46F82500013533
:1043E00000E00025072DF5D9203623685A6B12F41A
:1043F000957FEAD01CE011212046FFF797F980460F
:1044000080B151E05B6B13F4004F0BD006E02068E5
:1044100000F0C0FB46F82500013500E00025072D1F
:10442000F5D920362368596B40F22A421142E9D06F
:1044300023685B6B13F4807F08D0012F06D9236AB1
:10444000022B03D82046FFF755FF804623685A6B9E
:1044500012F0080F03D008229A63042024E05A6B5C
:1044600012F0020F02D0022098631DE05A6B12F086
:10447000200F09D020229A63062015E000F08AFB65
:1044800046F8040B013D01E04FF0FF352068436B17
:1044900013F4001F01D0002DF0D140F2FF538363CD
:1044A000404601E000E0FFE70DB0BDE8F08300BF4B
:1044B0002DE9F0478CB004460D469146149E159F99
:1044C00000228DF803200168CA62026A022A05D11F
:1044D0004FEA592242EAC3594FF4007607964FF04B
:1044E0001008CDF820804023099300230A934FF44D
:1044F00080630B9307A9206800F05EFB41462046CD
:10450000FFF714F9002840F0DF80012F02D91923AA
:10451000089301E0182308930CA941F8149D206822
:1045200000F04AFB012F04D919212046FFF7FEF8BD
:1045300003E018212046FFF7F9F8002840F0C48076
:1045400007FB06F64FF0FF33019302969023039387
:104550000023049305930123069301A9206800F02A
:1045600093FB012F35D84FF000086CE05B6B13F420
:10457000804F30D0C8EB060ABAF11F0F20D81AF0CE
:10458000030F02D14FEA9A0A03E04FEA9A0A0AF1AE
:10459000010A4FF0000908E02946206800F0FEFA01
:1045A000043508F1040809F10109D145F4D312E0FA
:1045B00005EB8901206800F0F1FA09F1010901E039
:1045C0004FF00009B9F1070FF2D9203508F12008A2
:1045D00001E04FF0000823685A6B12F48D7FC5D0BC
:1045E00037E05B6B13F4804F2DD0C8EB060ABAF1AD
:1045F0001F0F20D81AF0030F02D14FEA9A0A03E0E6
:104600004FEA9A0A0AF1010A4FF0000908E0294628
:10461000206800F0C3FA043508F1040809F1010923
:10462000D145F4D30FE005EB8901206800F0B6FA1C
:1046300009F1010901E04FF00009B9F1070FF2D9C2
:10464000203508F120082368596B40F21A421142C4
:10465000C7D023685B6B13F4807F07D0012F05D987
:10466000236A022B02D82046FFF744FE23685A6BC8
:1046700012F0080F03D008229A63042024E05A6B3A
:1046800012F0020F02D0022098631DE05A6B12F064
:10469000100F03D010229A63052015E040F2FF525C
:1046A0009A630DF103012046FFF7EAF904E00DF1EA
:1046B00003012046FFF7E4F930B99DF80330063BCB
:1046C000DBB2012BF3D9FFE70CB0BDE8F08700BFE8
:1046D000E8B138B504460D4690F82C3013F0FF0FC2
:1046E00004D1002380F82D3002F092F9022384F8DF
:1046F0002C30211D206800F02BF8626829462068C4
:1047000000F0E0F8012384F82C30002038BD0120AF
:10471000704700BF38B590F82C30DBB2022B14D0B4
:104720000D460446022380F82C30006800F068F93A
:104730002B68022B04D1052384F82C30002038BDCF
:10474000012384F82C30002038BD022038BD00BF82
:1047500038B505460C46584B984204D04FF440718A
:10476000564800F025FB2368012B04D940F20131A3
:10477000524800F01DFB6368032B04D940F202315C
:104780004E4800F015FBA368002B18BF042B06D081
:10479000082B04D040F20331484800F009FBE368DD
:1047A000002B18BF102B06D0202B04D04FF44171E2
:1047B000424800F0FDFA2369002B18BF402B04D0BB
:1047C00040F205313D4800F0F3FA6369802B18BFD1
:1047D000B3F5807F07D0B3F5C07F04D040F2063137
:1047E000364800F0E5FAA369002B18BFB3F5007F47
:1047F00004D040F20731314800F0DAFAE369002BC7
:1048000018BFB3F5006F07D0B3F5406F04D04FF475
:1048100042712A4800F0CCFA236A002B18BFB3F586
:10482000805F04D040F20931244800F0C1FA636A85
:10483000002B18BFB3F5005F07D0B3F5804F04D04D
:1048400040F20A311D4800F0B3FA2368012B16D05C
:104850002B681B4919406268A3681A43E3681A432E
:1048600023691A4363691A43A3691A43E3691A4324
:10487000236A1343626A13430B432B601AE02968CF
:104880000F4B01EA0300E169226A1143626A0A439D
:1048900040EA0201686818406368A2681343E2684E
:1048A00013432269134362691343A2691343034309
:1048B00029606B60002038BD400100A060F4000852
:1048C0000080FFFFF8B505460C4616464A4B984255
:1048D00004D040F25231494800F06AFA2368013BA3
:1048E0000F2B04D940F25331444800F061FA636859
:1048F000013B0F2B04D94FF45571404800F058FA92
:10490000A368013B0F2B04D940F255313B4800F01E
:104910004FFAE368013B0F2B04D940F25631374878
:1049200000F046FA2369013B0F2B04D940F25731BE
:10493000324800F03DFA6369013B0F2B04D94FF474
:1049400056712E4800F034FAA369013B0F2B04D9AD
:1049500040F25931294800F02BFA012E04D940F2D7
:104960005A31264800F024FA012E20D0AB6803F01B
:10497000704E23685A1E6668013E42EA0617A06818
:10498000013847EA0026E168013946EA0130226928
:10499000013A40EA02416369013B41EA0352A369DB
:1049A000013B42EA03634EEA0303AB6022E0EB689B
:1049B00003F0704723685E1E6168013946EA011002
:1049C000A268013A40EA02212369013B41EA03421D
:1049D000A369013B42EA03633B43AA6802F07040CB
:1049E000E268013A61690139090541EA023202438C
:1049F000EB60AA600020F8BD400100A060F4000850
:104A000070B582B005460C461646002301932B4B29
:104A1000984204D040F2E731294800F0C9F92368F0
:104A2000062B04D94FF47A71254800F0C1F9636868
:104A3000102B18BF082B06D0182B04D040F2E931F8
:104A40001F4800F0B5F9A368013B0F2B04D940F2D1
:104A5000EA311B4800F0ACF9E368B3F5005F04D31A
:104A600040F2EB31164800F0A3F922686368134363
:104A7000A268013A43EA4213E26843EA42230193FF
:104A8000019B2B61FBF7BEFC0446AB6913F0200FC2
:104A90000AD0B6F1FF3F09D056B1FBF7B3FC001BBB
:104AA000864207D3012006E0002004E0012002E056
:104AB000032000E0032002B070BD00BF400100A051
:104AC00060F4000884B02DE9F047054609A880E8A5
:104AD0000E002D4B9D4203D0DA212C4800F068F9DE
:104AE000DDF824A0BAF1000F18BFBAF5005F03D0BB
:104AF000DB21264800F05CF90A9C002C18BFB4F5B5
:104B0000806F03D0DC21214800F052F9DDF82C90B1
:104B1000B9F1000F18BFB9F5007F03D0DD211B48A4
:104B200000F046F90C9E002E18BFB6F5006F06D0B7
:104B3000B6F5805F03D0DE21144800F039F9DDF8C6
:104B40003480B8F1000F18BFB8F5804F03D0DF21D3
:104B50000E4800F02DF90E9FFF2F03D9E0210B48DE
:104B600000F026F94AEA040349EA0303334348EA1A
:104B700003033B436968064A0A4013436B60002005
:104B8000BDE8F04704B07047002C014090F40008E5
:104B90000081FFFFD0F88000704700BF0B68C0F8AD
:104BA00080300020704700BF03230360002070475F
:104BB000006800F00300704738B505460C464B68A6
:104BC0003F2B04D940F267111B4800F0F1F8A368AD
:104BD000002B18BF402B06D0C02B04D04FF4B4716B
:104BE000154800F0E5F8E368002B18BFB3F5807FA7
:104BF00007D0B3F5007F04D040F269110E4800F0F1
:104C0000D7F82369002B18BFB3F5806F04D04FF499
:104C1000B571094800F0CCF82368AB606268A368FE
:104C20001A43E368134322691A43E968034B0B40B4
:104C30001343EB60002038BD90F4000800F0FFFF44
:104C40000069C0B2704700BF30B583B0044600238E
:104C500001930D46994218BF04290BD0B1F10C0302
:104C600018BF0123082905D023B14FF4CB710548A3
:104C700000F09EF814342C440194019B186803B092
:104C800030BD00BF90F4000838B505460C464B68AF
:104C9000B3F1007F04D340F2AB112A4800F088F84A
:104CA000A368002B18BF102B1ED0202B1CD0302B3C
:104CB0001AD0402B18D0502B16D0602B14D0702B4C
:104CC00012D0802B10D0902B0ED0A02B0CD0B02B5C
:104CD0000AD0C02B08D0D02B06D0E02B04D04FF444
:104CE000D671184800F064F8E368002B18BF022B57
:104CF00004D040F2AD11134800F05AF82369002B9C
:104D000018BF042B04D04FF4D7710E4800F050F8B0
:104D10006369012B04D940F2AF110A4800F048F84A
:104D200023686B626368AB62A268E3681A43236915
:104D3000134362691A43EB6A23F0F7031343EB62F0
:104D4000002038BD90F40008FEE700BF08B5012040
:104D5000FFF7FAFF08B50D4B1B6813B90C4A0B4B54
:104D60001A600A4B1A68C31C23F003031344094951
:104D70008B4206D909F0EAFC0C2303604FF0FF30A8
:104D800008BD02490B60104608BD00BF2801002085
:104D90000C6C002000FC042001230360014B0B601D
:104DA000704700BF0400002008B5FFF7CFFF00BF29
:104DB00008B5FFF7CBFF00BF08B500F00FF8054BB3
:104DC000054A9A60D3F8882042F47002C3F888201C
:104DD00008BD00BF00ED00E00000000810B40F4A5D
:104DE000D2F8883043F47003C2F888300C4B19684D
:104DF00041F001011960002098601C6809492140B8
:104E0000196009495960196821F480211960D86036
:104E10004FF0006393605DF8044B704700ED00E0D5
:104E200000380240FFFFF6FE10300024224B9B6842
:104E300003F00C03042B07D0082B09D0002B2DD135
:104E40001E4A1F4B1A602CE01E4A1D4B1A6028E0B8
:104E5000194B5A685B6803F03F0312F4800F09D0C6
:104E6000184AB2FBF3F2144B5B68C3F3881303FBDD
:104E700002F208E0114AB2FBF3F30F4A5168C1F3A2
:104E8000881101FB03F20C4B5B68C3F30143013350
:104E90005B00B2FBF3F30A4A136002E0074A084BD7
:104EA0001A60054B9B68C3F30313074AD15C044A9D
:104EB0001368CB4013607047003802400024F400B0
:104EC0000C00002040787D01C0F4000830B587B0A8
:104ED0000E4B1A6B42F480721A631B6B03F48073DF
:104EE0000093009B02250195012302930393032362
:104EF0000493074C01A92046FCF780FD00222946B7
:104F00002046FCF70DFF07B030BD00BF003802405F
:104F10000020024008B5002303E00E4AD3540133B9
:104F2000DBB2632BF9D900231A4607E00949C95CB3
:104F30008B4201D00132D2B20133DBB2632BF5D9FF
:104F40003AB102210448FCF705FF6420FBF760FA40
:104F5000F7E708BD000000C00020024010B594B083
:104F6000234B1A6C42F080521A641B6C03F080537E
:104F70000193019B1F4B1A6842F440421A601B6860
:104F800003F440430293029B012308934FF48033C0
:104F900009934FF480030F93192310934FF4C873B0
:104FA000119302241294082313930E9408A8FDF77A
:104FB0007BF9FDF739F90F2303930494002305933C
:104FC0004FF4A05306934FF480530793062103A890
:104FD000FDF72AFCFDF71AFE074BA3FB0030800902
:104FE000FBF798FA0420FBF7ABFA14B010BD00BF32
:104FF0000038024000700040D34D621010B5BFF37E
:105000004F8FBFF36F8F204B0021C3F850125A69A6
:1050100042F400325A61BFF34F8FBFF36F8FC3F872
:105020008410BFF34F8FD3F88040C4F34E3000E0BC
:105030001846C4F3C90200E01A4643F6E07303EAD7
:10504000401343EA82731049C1F86032531E002AAC
:10505000F2D1431E0028EBD1BFF34F8F4B6943F4CD
:1050600080334B61BFF34F8FBFF36F8FFBF7ACF90A
:10507000FFF72CFF01F050FDFFF74CFFFFF76EFF2D
:10508000FFF7D4FE10BD00BF00ED00E008B502211F
:105090000348FCF75FFE4FF47A7008F003FFF6E771
:1050A0000020024010B584B000F0EEFE244B1868DA
:1050B00000F04EFF01F00EFC2249002001F04AF8FA
:1050C00001F030F8044601F039F81F4900FB0410E4
:1050D0008100012001F03EF801F02EFB002001F0DC
:1050E00079F81A4C204601F0A3F8012001F072F87B
:1050F000204601F09DF81649082001F00FFA3222EF
:105100006421C82001F0B0FA124802F0DFFB4FF42E
:1051100000634FF400521049104802F019F90024BE
:10512000039402940194009423464FF490720C4926
:105130000C4808F0A3FC204608F020FD04B010BD88
:1051400010000020000070C000001C30000080FF34
:10515000D0F40008E4F40008640000C0E8F400089B
:10516000F0F400088D5000080449D1E90023013211
:1051700043F10003C1E90023704700BF3001002064
:105180000449D1E90023013243F10003C1E90023BE
:10519000704700BF38010020704700BF704700BF54
:1051A00000B585B000230393029301930722009278
:1051B0004FF489620349044808F060FC08F038FDA8
:1051C000FEE700BFF8F40008A5500008704700BFD4
:1051D00008B5FBF70FF909F061F8012801D001F0DB
:1051E0007FFF08BD03460021084608E0202A04D1BD
:1051F00021B9013040B2012100E00021013393F9CF
:105200000020002AF2D109B1013840B2704700BF36
:1052100010B50A46094B1B6813B90949074B1960B9
:10522000064C23681B68596809F06EFC23685B68AC
:1052300023600BB9002010BD012010BDA801002083
:105240001800002038B505460C466422002109F0FC
:10525000ADFA0B49204609F06BFC00230DE05C1C05
:10526000E4B203EB83035A000146A81809F027FCB7
:105270000349002009F05CFC23460028EFD138BD2B
:1052800070F5000838B50546082001F003FE68B146
:10529000044601F0D1FE256000236360044B1A68C8
:1052A00054601C6001F0E0FE012038BD002038BDD4
:1052B000140000202DE9F04105460E461746384BF4
:1052C0001B68002B32D1374A354B1A6026E01B6829
:1052D0001C68204609F0FBFB2B56002B18BF202B27
:1052E00018D102462146284609F0F9FB90B9284614
:1052F000FFF778FF5FFA80F8B8F1090F1AD8284B4A
:105300001B681B6893F90C30002B15DB984515D1F1
:10531000012414E0224B1A6852681A60204B1B6863
:10532000002BD4D14FF00008012408E04FF0000812
:10533000012404E0002402E0012400E00024184BD2
:105340001B684BB144B93A461749304609F0DCFBBB
:105350000022134B1A601FE0C3B1144C29462046AB
:10536000FFF770FF3A460021304609F01FFA0C4B58
:105370001B681B689D684346224639463046A8474D
:10538000044648B90022064B1A6005E03A4608492F
:10539000304609F0B9FB00242046BDE8F08100BF8B
:1053A000400100201800002074F50008440100208E
:1053B000C8F500080023C360016103604360836097
:1053C000704700BF70B504460E46836843B103685A
:1053D0009968304609F069FB10B92368A36070BD75
:1053E000E368226993420BD163681D68986809F0ED
:1053F000BBF9606809F0B8F900236B60656001E0F3
:105400000133E3600C2009F0A7F90546002303608F
:1054100023684360304609F05AFB013009F09CF9DB
:10542000A860314609F04BFB23680BB11D6000E01A
:1054300065602560A5600122014B1A7070BD00BF38
:10544000AC0100208368DBB15A68F2B110B4104996
:10545000097829B11C681CB99B688260184611E064
:105460000C4B1B781BB100220A4B1A7005E009B9DE
:10547000826002E00022064B1A708368986801E09F
:10548000002070475DF8044B704783689868704748
:10549000AC010020AD01002082684AB1136813B14D
:1054A0008360986870470021024B197090687047BC
:1054B00000207047AC0100208068704700B583B0C1
:1054C0000C4B1B6893F900308DF804305B238DF88A
:1054D000053000238DF8073091F900308DF8063043
:1054E0004369C26B04210DEB0100984703B05DF8DE
:1054F00004FB00BF2400002000B583B00E4B1B68E6
:1055000093F900308DF800305B238DF801300B4BA0
:105510001B6893F900208DF8022093F901308DF873
:10552000033000238DF804304369C26B05216846BF
:10553000984703B05DF804FB2400002028000020F9
:1055400008B50122034B1A70034B196809F0B7FA2A
:10555000002008BDAE0100206000002070B50546A7
:105560000E46002405E02B5D83F04B0333550134D8
:10557000A4B2284609F0ABFA8442F4D370BD00BF50
:1055800070B5044646694568284609F0A0FAE26B02
:1055900001462846B04770BD70B504464669056AA5
:1055A000284609F094FAE26B01462846B04770BDE0
:1055B00038B5054602F10A04204609F088FA202889
:1055C00004D805492046FFF7C9FF03E003492846F0
:1055D00009F02AFA002038BDD003002058F6000850
:1055E00070B588B005460C4620220021684609F0B7
:1055F000DDF82B6A93F90030A34225D1694628488B
:10560000FFF7ACFF274C204609F061FA024621461D
:10561000684609F0B1F848B92846FFF7BDFF2846AB
:10562000FFF7AEFF0222204B1A7029E02846FFF751
:10563000B3FF6E691D4B1C68204609F048FAEA6BFF
:1056400001462046B0471BE0A4F12003DBB25E2BED
:1056500016D8174B1B881F2B05D8591C144A1180CC
:105660000F4AD45419E02846FFF796FF6E690F4B96
:105670001C68204609F02BFAEA6B01462046B04729
:1056800000240B4B1C8020222146054809F08EF88F
:1056900020222146684609F089F808B070BD00BF95
:1056A000B0010020D0030020AE0100205C000020EB
:1056B000F40300202DE9F0410E4690461F46114CA0
:1056C00002460021206809F071F83A463146206808
:1056D00009F01AFA206809F0FAF9054620684146EF
:1056E000284409F0ECF9404609F0F1F92844236810
:1056F000F119184409F0E3F92168304609F0DFF99F
:10570000BDE8F081F00300202DE9F04104460E468B
:105710001546052B00F2EA80DFE813F0060066006C
:105720009C00A700B200C200C568026995420AD376
:105730000025C5602946806809F038F8A3681D7007
:105740000120BDE8F081806809F0C1F9854233D2BB
:10575000A06809F0BCF92569A84280F0CA80E36816
:105760003246A1682846FFF7A5FF2046FFF7C4FE92
:105770006369E26B0121684898472046FFF700FF04
:105780006669A568284609F0A2F9E26B0146284639
:10579000B047A06809F09BF9E368C01A04E0616AA9
:1057A0002046FFF78BFE2846451E0028F7D1E36808
:1057B0000133E360BDE8F081A268E36896F9001068
:1057C000D154E3680133E360A2680021D154E56855
:1057D000A06809F07CF9854240F08E80A268E368F9
:1057E0000020D054BDE8F081C768002F00F087800A
:1057F0007D1E806809F06BF9064604E0A3685A191B
:1058000001355B571370B542F8D12046FFF774FE9F
:105810006369E26B0121404898472046FFF7B0FEDC
:10582000D4F81480A568284609F051F9E26B0146C6
:105830002846C047F31B04E0616A2046FFF73EFE9E
:105840002B465D1E002BF7D1E368013BE36000208F
:10585000BDE8F08102690021806808F0A7FFA36815
:1058600000201870E060BDE8F081C368002B49D0CB
:10587000013BC360416AFFF721FE0020BDE8F081D3
:10588000C568806809F023F985423ED0E36801339A
:10589000E360A16A2046FFF711FE0020BDE8F08119
:1058A0000369AB4234D3FFF727FE6369E26B012142
:1058B000194898472046FFF763FE0027E7602269F2
:1058C0003946A06808F072FFA3681F702A46314667
:1058D000A06808F060FFE3682B44E3606369E26B53
:1058E0002946304698470520BDE8F0810520BDE8EF
:1058F000F0810120BDE8F0810020BDE8F0810220A8
:10590000BDE8F0810320BDE8F0810420BDE8F0810E
:105910000520BDE8F08100BF6CF60008F8B505462B
:10592000FFF73AFE2846FFF7C7FD174909F0BDF813
:1059300000B32846FFF7C0FD01461448FFF742FDBB
:105940002846FFF7B9FD124C4FF400722146FFF7CD
:10595000B1FC064694F9003053B16F69204609F056
:10596000B6F8EA6B01462046B8472846FFF714FE12
:10597000002EE5D12846FFF703FE02230022114640
:105980002846FFF7C1FEF8BD48F6000818040020BD
:10599000D001002030B583B08DF807104C4B1B6848
:1059A00093F900204BB29A4203D10122494B1A705D
:1059B0008CE0484A92F90020012A02D15B2B00F0CA
:1059C00085800446016A91F900108B4202D1FFF7ED
:1059D000A5FF7BE0C16991F900108B4205D101233D
:1059E00000221146FFF790FE70E0C16A91F90010A5
:1059F0008B4213D1012A11D10022364B1A7036483E
:105A0000FFF720FD0546002860D009F060F8052367
:105A1000024629462046FFF777FE57E0216B91F9B1
:105A200000108B4213D1012A11D10022294B1A7088
:105A30002948FFF731FD0546002847D009F047F80F
:105A40000523024629462046FFF75EFE3EE0616AD6
:105A500091F900108B420AD1012A08D100211D4B77
:105A6000197003230A462046FFF74EFE2EE0A16A76
:105A700091F900108B420AD1012A08D10021154B5F
:105A8000197004230A462046FFF73EFE1EE0203B25
:105A9000DBB25E2B1AD8002301220DF1070120464C
:105AA000FFF732FE30B96369E26B01210DF10700A7
:105AB00098470BE00223002211462046FFF724FE00
:105AC0002046FFF769FD2046FFF75AFD03B030BDC1
:105AD00024000020AF0100201804002008B5FFF7C3
